{
  "contractName": "PassportRegistry",
  "abi": [
    {
      "anonymous": false,
      "inputs": [
        {
          "indexed": false,
          "internalType": "address",
          "name": "userAddress",
          "type": "address"
        },
        {
          "indexed": false,
          "internalType": "uint256",
          "name": "passportID",
          "type": "uint256"
        }
      ],
      "name": "UserRegistered",
      "type": "event"
    },
    {
      "inputs": [],
      "name": "passportCounter",
      "outputs": [
        {
          "internalType": "uint256",
          "name": "",
          "type": "uint256"
        }
      ],
      "stateMutability": "view",
      "type": "function",
      "constant": true
    },
    {
      "inputs": [
        {
          "internalType": "address",
          "name": "",
          "type": "address"
        }
      ],
      "name": "predefinedUsers",
      "outputs": [
        {
          "internalType": "bool",
          "name": "",
          "type": "bool"
        }
      ],
      "stateMutability": "view",
      "type": "function",
      "constant": true
    },
    {
      "inputs": [
        {
          "internalType": "address",
          "name": "",
          "type": "address"
        }
      ],
      "name": "users",
      "outputs": [
        {
          "internalType": "string",
          "name": "name",
          "type": "string"
        },
        {
          "internalType": "uint256",
          "name": "age",
          "type": "uint256"
        },
        {
          "internalType": "string",
          "name": "birthdate",
          "type": "string"
        },
        {
          "internalType": "string",
          "name": "country",
          "type": "string"
        },
        {
          "internalType": "uint256",
          "name": "passportID",
          "type": "uint256"
        }
      ],
      "stateMutability": "view",
      "type": "function",
      "constant": true
    },
    {
      "inputs": [
        {
          "internalType": "string",
          "name": "_name",
          "type": "string"
        },
        {
          "internalType": "uint256",
          "name": "_age",
          "type": "uint256"
        },
        {
          "internalType": "string",
          "name": "_birthdate",
          "type": "string"
        },
        {
          "internalType": "string",
          "name": "_country",
          "type": "string"
        }
      ],
      "name": "registerUser",
      "outputs": [],
      "stateMutability": "nonpayable",
      "type": "function"
    },
    {
      "inputs": [
        {
          "internalType": "address",
          "name": "_userAddress",
          "type": "address"
        },
        {
          "internalType": "uint256",
          "name": "_age",
          "type": "uint256"
        }
      ],
      "name": "verifyUser",
      "outputs": [
        {
          "internalType": "bool",
          "name": "",
          "type": "bool"
        },
        {
          "internalType": "string",
          "name": "",
          "type": "string"
        },
        {
          "internalType": "uint256",
          "name": "",
          "type": "uint256"
        }
      ],
      "stateMutability": "view",
      "type": "function",
      "constant": true
    },
    {
      "inputs": [
        {
          "internalType": "address",
          "name": "_userAddress",
          "type": "address"
        }
      ],
      "name": "setPredefinedUser",
      "outputs": [],
      "stateMutability": "nonpayable",
      "type": "function"
    },
    {
      "inputs": [
        {
          "internalType": "address",
          "name": "_userAddress",
          "type": "address"
        }
      ],
      "name": "getUserData",
      "outputs": [
        {
          "internalType": "string",
          "name": "",
          "type": "string"
        },
        {
          "internalType": "uint256",
          "name": "",
          "type": "uint256"
        },
        {
          "internalType": "string",
          "name": "",
          "type": "string"
        },
        {
          "internalType": "string",
          "name": "",
          "type": "string"
        },
        {
          "internalType": "uint256",
          "name": "",
          "type": "uint256"
        }
      ],
      "stateMutability": "view",
      "type": "function",
      "constant": true
    }
  ],
  "bytecode": "0x608060405234801561001057600080fd5b506113d0806100206000396000f3fe608060405234801561001057600080fd5b506004361061007d5760003560e01c8063a87430ba1161005b578063a87430ba14610102578063b7bb80f914610136578063f67e493014610152578063ffc9896b1461016e5761007d565b806332d345da1461008257806332d836b5146100b4578063737f02da146100d2575b600080fd5b61009c60048036038101906100979190610cf4565b6101a2565b6040516100ab93929190610feb565b60405180910390f35b6100bc61042b565b6040516100c99190611131565b60405180910390f35b6100ec60048036038101906100e79190610ccb565b610431565b6040516100f99190610fd0565b60405180910390f35b61011c60048036038101906101179190610ccb565b610451565b60405161012d959493929190611029565b60405180910390f35b610150600480360381019061014b9190610d30565b61061f565b005b61016c60048036038101906101679190610ccb565b61085c565b005b61018860048036038101906101839190610ccb565b6108b6565b604051610199959493929190611029565b60405180910390f35b600060606000806000808773ffffffffffffffffffffffffffffffffffffffff1673ffffffffffffffffffffffffffffffffffffffff1681526020019081526020016000206040518060a001604052908160008201805461020290611253565b80601f016020809104026020016040519081016040528092919081815260200182805461022e90611253565b801561027b5780601f106102505761010080835404028352916020019161027b565b820191906000526020600020905b81548152906001019060200180831161025e57829003601f168201915b505050505081526020016001820154815260200160028201805461029e90611253565b80601f01602080910402602001604051908101604052809291908181526020018280546102ca90611253565b80156103175780601f106102ec57610100808354040283529160200191610317565b820191906000526020600020905b8154815290600101906020018083116102fa57829003601f168201915b5050505050815260200160038201805461033090611253565b80601f016020809104026020016040519081016040528092919081815260200182805461035c90611253565b80156103a95780601f1061037e576101008083540402835291602001916103a9565b820191906000526020600020905b81548152906001019060200180831161038c57829003601f168201915b50505050508152602001600482015481525050905084816020015114156103e25760018160000151826080015193509350935050610424565b6000806040518060400160405280601681526020017f4e6f206d61746368696e67207573657220666f756e640000000000000000000081525090935093509350505b9250925092565b60025481565b60016020528060005260406000206000915054906101000a900460ff1681565b600060205280600052604060002060009150905080600001805461047490611253565b80601f01602080910402602001604051908101604052809291908181526020018280546104a090611253565b80156104ed5780601f106104c2576101008083540402835291602001916104ed565b820191906000526020600020905b8154815290600101906020018083116104d057829003601f168201915b50505050509080600101549080600201805461050890611253565b80601f016020809104026020016040519081016040528092919081815260200182805461053490611253565b80156105815780601f1061055657610100808354040283529160200191610581565b820191906000526020600020905b81548152906001019060200180831161056457829003601f168201915b50505050509080600301805461059690611253565b80601f01602080910402602001604051908101604052809291908181526020018280546105c290611253565b801561060f5780601f106105e45761010080835404028352916020019161060f565b820191906000526020600020905b8154815290600101906020018083116105f257829003601f168201915b5050505050908060040154905085565b6000845111610663576040517f08c379a000000000000000000000000000000000000000000000000000000000815260040161065a906110f1565b60405180910390fd5b600083116106a6576040517f08c379a000000000000000000000000000000000000000000000000000000000815260040161069d90611091565b60405180910390fd5b60008251116106ea576040517f08c379a00000000000000000000000000000000000000000000000000000000081526004016106e190611111565b60405180910390fd5b600081511161072e576040517f08c379a0000000000000000000000000000000000000000000000000000000008152600401610725906110d1565b60405180910390fd5b6002600081548092919061074190611285565b91905055506040518060a001604052808581526020018481526020018381526020018281526020016002548152506000803373ffffffffffffffffffffffffffffffffffffffff1673ffffffffffffffffffffffffffffffffffffffff16815260200190815260200160002060008201518160000190805190602001906107c9929190610b96565b506020820151816001015560408201518160020190805190602001906107f0929190610b96565b50606082015181600301908051906020019061080d929190610b96565b50608082015181600401559050507fe29d35093005f4d575e1003753426b57a7f64378ba73332eef9c6ccc2b8decd63360025460405161084e929190610fa7565b60405180910390a150505050565b60018060008373ffffffffffffffffffffffffffffffffffffffff1673ffffffffffffffffffffffffffffffffffffffff16815260200190815260200160002060006101000a81548160ff02191690831515021790555050565b60606000606080600060011515600160003373ffffffffffffffffffffffffffffffffffffffff1673ffffffffffffffffffffffffffffffffffffffff16815260200190815260200160002060009054906101000a900460ff16151514610952576040517f08c379a0000000000000000000000000000000000000000000000000000000008152600401610949906110b1565b60405180910390fd5b60008060008873ffffffffffffffffffffffffffffffffffffffff1673ffffffffffffffffffffffffffffffffffffffff1681526020019081526020016000206040518060a00160405290816000820180546109ad90611253565b80601f01602080910402602001604051908101604052809291908181526020018280546109d990611253565b8015610a265780601f106109fb57610100808354040283529160200191610a26565b820191906000526020600020905b815481529060010190602001808311610a0957829003601f168201915b5050505050815260200160018201548152602001600282018054610a4990611253565b80601f0160208091040260200160405190810160405280929190818152602001828054610a7590611253565b8015610ac25780601f10610a9757610100808354040283529160200191610ac2565b820191906000526020600020905b815481529060010190602001808311610aa557829003601f168201915b50505050508152602001600382018054610adb90611253565b80601f0160208091040260200160405190810160405280929190818152602001828054610b0790611253565b8015610b545780601f10610b2957610100808354040283529160200191610b54565b820191906000526020600020905b815481529060010190602001808311610b3757829003601f168201915b50505050508152602001600482015481525050905080600001518160200151826040015183606001518460800151955095509550955095505091939590929450565b828054610ba290611253565b90600052602060002090601f016020900481019282610bc45760008555610c0b565b82601f10610bdd57805160ff1916838001178555610c0b565b82800160010185558215610c0b579182015b82811115610c0a578251825591602001919060010190610bef565b5b509050610c189190610c1c565b5090565b5b80821115610c35576000816000905550600101610c1d565b5090565b6000610c4c610c478461117d565b61114c565b905082815260208101848484011115610c6457600080fd5b610c6f848285611211565b509392505050565b600081359050610c868161136c565b92915050565b600082601f830112610c9d57600080fd5b8135610cad848260208601610c39565b91505092915050565b600081359050610cc581611383565b92915050565b600060208284031215610cdd57600080fd5b6000610ceb84828501610c77565b91505092915050565b60008060408385031215610d0757600080fd5b6000610d1585828601610c77565b9250506020610d2685828601610cb6565b9150509250929050565b60008060008060808587031215610d4657600080fd5b600085013567ffffffffffffffff811115610d6057600080fd5b610d6c87828801610c8c565b9450506020610d7d87828801610cb6565b935050604085013567ffffffffffffffff811115610d9a57600080fd5b610da687828801610c8c565b925050606085013567ffffffffffffffff811115610dc357600080fd5b610dcf87828801610c8c565b91505092959194509250565b610de4816111c9565b82525050565b610df3816111db565b82525050565b6000610e04826111ad565b610e0e81856111b8565b9350610e1e818560208601611220565b610e278161135b565b840191505092915050565b6000610e3f601a836111b8565b91507f416765206d7573742062652067726561746572207468616e20300000000000006000830152602082019050919050565b6000610e7f602e836111b8565b91507f596f7520646f206e6f742068617665207065726d697373696f6e20746f20616360008301527f63657373207468697320646174610000000000000000000000000000000000006020830152604082019050919050565b6000610ee56013836111b8565b91507f436f756e747279206973207265717569726564000000000000000000000000006000830152602082019050919050565b6000610f256010836111b8565b91507f4e616d65206973207265717569726564000000000000000000000000000000006000830152602082019050919050565b6000610f656015836111b8565b91507f42697274686461746520697320726571756972656400000000000000000000006000830152602082019050919050565b610fa181611207565b82525050565b6000604082019050610fbc6000830185610ddb565b610fc96020830184610f98565b9392505050565b6000602082019050610fe56000830184610dea565b92915050565b60006060820190506110006000830186610dea565b81810360208301526110128185610df9565b90506110216040830184610f98565b949350505050565b600060a08201905081810360008301526110438188610df9565b90506110526020830187610f98565b81810360408301526110648186610df9565b905081810360608301526110788185610df9565b90506110876080830184610f98565b9695505050505050565b600060208201905081810360008301526110aa81610e32565b9050919050565b600060208201905081810360008301526110ca81610e72565b9050919050565b600060208201905081810360008301526110ea81610ed8565b9050919050565b6000602082019050818103600083015261110a81610f18565b9050919050565b6000602082019050818103600083015261112a81610f58565b9050919050565b60006020820190506111466000830184610f98565b92915050565b6000604051905081810181811067ffffffffffffffff821117156111735761117261132c565b5b8060405250919050565b600067ffffffffffffffff8211156111985761119761132c565b5b601f19601f8301169050602081019050919050565b600081519050919050565b600082825260208201905092915050565b60006111d4826111e7565b9050919050565b60008115159050919050565b600073ffffffffffffffffffffffffffffffffffffffff82169050919050565b6000819050919050565b82818337600083830152505050565b60005b8381101561123e578082015181840152602081019050611223565b8381111561124d576000848401525b50505050565b6000600282049050600182168061126b57607f821691505b6020821081141561127f5761127e6112fd565b5b50919050565b600061129082611207565b91507fffffffffffffffffffffffffffffffffffffffffffffffffffffffffffffffff8214156112c3576112c26112ce565b5b600182019050919050565b7f4e487b7100000000000000000000000000000000000000000000000000000000600052601160045260246000fd5b7f4e487b7100000000000000000000000000000000000000000000000000000000600052602260045260246000fd5b7f4e487b7100000000000000000000000000000000000000000000000000000000600052604160045260246000fd5b6000601f19601f8301169050919050565b611375816111c9565b811461138057600080fd5b50565b61138c81611207565b811461139757600080fd5b5056fea2646970667358221220cd6d3220221b565e8947ad47ad1ea8a71e17e18daa7f6a93f76401bdf41505f464736f6c63430008000033",
  "immutableReferences": {},
  "source": "// SPDX-License-Identifier: MIT\npragma solidity ^0.8.0;\n\ncontract PassportRegistry {\n    struct User {\n        string name;\n        uint age;\n        string birthdate;\n        string country;\n        uint passportID;\n    }\n\n    mapping(address => User) public users;\n    mapping(address => bool) public predefinedUsers;\n    uint public passportCounter;\n\n    event UserRegistered(address userAddress, uint passportID);\n\n    // Register user function\n    function registerUser(string memory _name, uint _age, string memory _birthdate, string memory _country) public {\n        require(bytes(_name).length > 0, \"Name is required\");\n        require(_age > 0, \"Age must be greater than 0\");\n        require(bytes(_birthdate).length > 0, \"Birthdate is required\");\n        require(bytes(_country).length > 0, \"Country is required\");\n\n        passportCounter++;\n        users[msg.sender] = User(_name, _age, _birthdate, _country, passportCounter);\n\n        emit UserRegistered(msg.sender, passportCounter);\n    }\n\n    // Verify user function\n    function verifyUser(address _userAddress, uint _age) public view returns (bool, string memory, uint) {\n        User memory user = users[_userAddress];\n        if (user.age == _age) {\n            return (true, user.name, user.passportID);\n        }\n        return (false, \"No matching user found\", 0);\n    }\n\n    // Set predefined users who can access any user's data\n    function setPredefinedUser(address _userAddress) public {\n        predefinedUsers[_userAddress] = true;\n    }\n\n    // Function for predefined users to access user data\n    function getUserData(address _userAddress) public view returns (string memory, uint, string memory, string memory, uint) {\n        require(predefinedUsers[msg.sender] == true, \"You do not have permission to access this data\");\n        User memory user = users[_userAddress];\n        return (user.name, user.age, user.birthdate, user.country, user.passportID);\n    }\n}\n",
  "sourcePath": "/home/lycanthrope/Github/passport-management-blockchain/contracts/PassportRegistry.sol",
  "compiler": {
    "name": "solc",
    "version": "0.8.0+commit.c7dfd78e.Emscripten.clang"
  },
  "schemaVersion": "3.4.16",
  "updatedAt": "2024-12-13T21:04:45.306Z",
  "networkType": "ethereum",
  "devdoc": {
    "kind": "dev",
    "methods": {},
    "version": 1
  },
  "userdoc": {
    "kind": "user",
    "methods": {},
    "version": 1
  }
}